{
  "contractName": "Election",
  "abi": [
    {
      "inputs": [],
      "payable": false,
      "stateMutability": "nonpayable",
      "type": "constructor"
    },
    {
      "anonymous": false,
      "inputs": [
        {
          "indexed": true,
          "internalType": "uint256",
          "name": "_candidateId",
          "type": "uint256"
        }
      ],
      "name": "votedEvent",
      "type": "event"
    },
    {
      "constant": true,
      "inputs": [
        {
          "internalType": "uint256",
          "name": "",
          "type": "uint256"
        }
      ],
      "name": "candidates",
      "outputs": [
        {
          "internalType": "uint256",
          "name": "id",
          "type": "uint256"
        },
        {
          "internalType": "string",
          "name": "name",
          "type": "string"
        },
        {
          "internalType": "uint256",
          "name": "voteCount",
          "type": "uint256"
        }
      ],
      "payable": false,
      "stateMutability": "view",
      "type": "function"
    },
    {
      "constant": true,
      "inputs": [],
      "name": "candidatesCount",
      "outputs": [
        {
          "internalType": "uint256",
          "name": "",
          "type": "uint256"
        }
      ],
      "payable": false,
      "stateMutability": "view",
      "type": "function"
    },
    {
      "constant": true,
      "inputs": [
        {
          "internalType": "address",
          "name": "",
          "type": "address"
        }
      ],
      "name": "voters",
      "outputs": [
        {
          "internalType": "bool",
          "name": "",
          "type": "bool"
        }
      ],
      "payable": false,
      "stateMutability": "view",
      "type": "function"
    },
    {
      "constant": false,
      "inputs": [
        {
          "internalType": "uint256",
          "name": "_candidateId",
          "type": "uint256"
        }
      ],
      "name": "vote",
      "outputs": [],
      "payable": false,
      "stateMutability": "nonpayable",
      "type": "function"
    }
  ],
  "bytecode": "0x608060405234801561001057600080fd5b506100556040518060400160405280600481526020017f4d616861000000000000000000000000000000000000000000000000000000008152506100e260201b60201c565b6100996040518060400160405280600881526020017f43616dc3a96c69610000000000000000000000000000000000000000000000008152506100e260201b60201c565b6100dd6040518060400160405280600681526020017f4d6f6f74657a00000000000000000000000000000000000000000000000000008152506100e260201b60201c565b610202565b600260008154809291906001019190505550604051806060016040528060025481526020018281526020016000815250600080600254815260200190815260200160002060008201518160000155602082015181600101908051906020019061014c92919061015d565b506040820151816002015590505050565b828054600181600116156101000203166002900490600052602060002090601f016020900481019282601f1061019e57805160ff19168380011785556101cc565b828001600101855582156101cc579182015b828111156101cb5782518255916020019190600101906101b0565b5b5090506101d991906101dd565b5090565b6101ff91905b808211156101fb5760008160009055506001016101e3565b5090565b90565b6103e9806102116000396000f3fe608060405234801561001057600080fd5b506004361061004c5760003560e01c80630121b93f146100515780632d35a8a21461007f5780633477ee2e1461009d578063a3ec138d14610152575b600080fd5b61007d6004803603602081101561006757600080fd5b81019080803590602001909291905050506101ae565b005b6100876102cc565b6040518082815260200191505060405180910390f35b6100c9600480360360208110156100b357600080fd5b81019080803590602001909291905050506102d2565b6040518084815260200180602001838152602001828103825284818151815260200191508051906020019080838360005b838110156101155780820151818401526020810190506100fa565b50505050905090810190601f1680156101425780820380516001836020036101000a031916815260200191505b5094505050505060405180910390f35b6101946004803603602081101561016857600080fd5b81019080803573ffffffffffffffffffffffffffffffffffffffff169060200190929190505050610394565b604051808215151515815260200191505060405180910390f35b600160003373ffffffffffffffffffffffffffffffffffffffff1673ffffffffffffffffffffffffffffffffffffffff16815260200190815260200160002060009054906101000a900460ff161561020557600080fd5b60008111801561021757506002548111155b61022057600080fd5b60018060003373ffffffffffffffffffffffffffffffffffffffff1673ffffffffffffffffffffffffffffffffffffffff16815260200190815260200160002060006101000a81548160ff02191690831515021790555060008082815260200190815260200160002060020160008154809291906001019190505550807ffff3c900d938d21d0990d786e819f29b8d05c1ef587b462b939609625b684b1660405160405180910390a250565b60025481565b6000602052806000526040600020600091509050806000015490806001018054600181600116156101000203166002900480601f0160208091040260200160405190810160405280929190818152602001828054600181600116156101000203166002900480156103845780601f1061035957610100808354040283529160200191610384565b820191906000526020600020905b81548152906001019060200180831161036757829003601f168201915b5050505050908060020154905083565b60016020528060005260406000206000915054906101000a900460ff168156fea265627a7a723158203bb477d0f9e8424473ec06e69eac00f018bf80e5c307c0c591c9c8fce6dcd09e64736f6c63430005100032",
  "source": "pragma solidity ^0.5.0;\r\n\r\ncontract Election {\r\n\r\n/*  // Read/write candidate\r\n string public candidate; */\r\n\r\n// Read/write Candidates\r\n mapping(uint => Candidate) public candidates;\r\n// Store accounts that have voted\r\nmapping(address => bool) public voters;\r\n // Model a Candidate\r\n struct Candidate {\r\n uint id;\r\n string name;\r\n uint voteCount;\r\n}\r\nevent votedEvent (\r\n uint indexed _candidateId\r\n );\r\n\r\n\r\n // Constructor\r\n constructor() public {\r\n\r\n //candidate = \"Candidate 1\";\r\n addCandidate(\"Maha\");\r\n addCandidate(\"Camélia\");\r\n addCandidate(\"Mootez\");\r\n }\r\n\r\n// Store Candidates Count\r\n uint public candidatesCount;\r\n\r\nfunction addCandidate (string memory _name) private {\r\n candidatesCount ++;\r\n candidates[candidatesCount] = Candidate(candidatesCount, _name, 0);\r\n }\r\nfunction vote (uint _candidateId) public {\r\n // require that they haven't voted before\r\n require(!voters[msg.sender]);\r\n // require a valid candidate\r\n require(_candidateId > 0 && _candidateId <= candidatesCount);\r\n // record that voter has voted\r\n voters[msg.sender] = true;\r\n // update candidate vote Count\r\n candidates[_candidateId].voteCount ++;\r\n \r\n// trigger voted event\r\n  emit votedEvent(_candidateId);\r\n}\r\n\r\n}\r\n\r\n\r\n",
  "sourcePath": "C:\\Users\\lenovo\\tpBlockchainEthereum\\contracts\\Election.sol",
  "compiler": {
    "name": "solc",
    "version": "0.5.16+commit.9c3226ce.Emscripten.clang"
  },
  "schemaVersion": "3.4.3",
  "updatedAt": "2021-12-12T13:24:07.454Z",
  "networkType": "ethereum",
  "devdoc": {
    "methods": {}
  },
  "userdoc": {
    "methods": {}
  }
}